{"abi":[{"type":"constructor","inputs":[{"name":"_pokemonCards","type":"address","internalType":"address"}],"stateMutability":"nonpayable"},{"type":"function","name":"createAuction","inputs":[{"name":"tokenId","type":"uint256","internalType":"uint256"},{"name":"startingPrice","type":"uint256","internalType":"uint256"},{"name":"duration","type":"uint256","internalType":"uint256"}],"outputs":[],"stateMutability":"nonpayable"},{"type":"function","name":"finalizeAuction","inputs":[{"name":"tokenId","type":"uint256","internalType":"uint256"}],"outputs":[],"stateMutability":"nonpayable"},{"type":"function","name":"listCard","inputs":[{"name":"tokenId","type":"uint256","internalType":"uint256"},{"name":"price","type":"uint256","internalType":"uint256"}],"outputs":[],"stateMutability":"nonpayable"},{"type":"function","name":"listings","inputs":[{"name":"","type":"uint256","internalType":"uint256"}],"outputs":[{"name":"seller","type":"address","internalType":"address"},{"name":"tokenId","type":"uint256","internalType":"uint256"},{"name":"price","type":"uint256","internalType":"uint256"},{"name":"deadline","type":"uint256","internalType":"uint256"},{"name":"isAuction","type":"bool","internalType":"bool"},{"name":"highestBidder","type":"address","internalType":"address"},{"name":"highestBid","type":"uint256","internalType":"uint256"},{"name":"active","type":"bool","internalType":"bool"}],"stateMutability":"view"},{"type":"function","name":"pause","inputs":[],"outputs":[],"stateMutability":"nonpayable"},{"type":"function","name":"paused","inputs":[],"outputs":[{"name":"","type":"bool","internalType":"bool"}],"stateMutability":"view"},{"type":"function","name":"pendingReturns","inputs":[{"name":"","type":"address","internalType":"address"}],"outputs":[{"name":"","type":"uint256","internalType":"uint256"}],"stateMutability":"view"},{"type":"function","name":"placeBid","inputs":[{"name":"tokenId","type":"uint256","internalType":"uint256"}],"outputs":[],"stateMutability":"payable"},{"type":"function","name":"pokemonCards","inputs":[],"outputs":[{"name":"","type":"address","internalType":"contract IERC721"}],"stateMutability":"view"},{"type":"function","name":"purchaseCard","inputs":[{"name":"tokenId","type":"uint256","internalType":"uint256"}],"outputs":[],"stateMutability":"payable"},{"type":"function","name":"unpause","inputs":[],"outputs":[],"stateMutability":"nonpayable"},{"type":"function","name":"withdraw","inputs":[],"outputs":[],"stateMutability":"nonpayable"},{"type":"event","name":"AuctionBid","inputs":[{"name":"tokenId","type":"uint256","indexed":true,"internalType":"uint256"},{"name":"bidder","type":"address","indexed":true,"internalType":"address"},{"name":"bid","type":"uint256","indexed":false,"internalType":"uint256"}],"anonymous":false},{"type":"event","name":"Listed","inputs":[{"name":"tokenId","type":"uint256","indexed":true,"internalType":"uint256"},{"name":"seller","type":"address","indexed":true,"internalType":"address"},{"name":"price","type":"uint256","indexed":false,"internalType":"uint256"},{"name":"isAuction","type":"bool","indexed":false,"internalType":"bool"}],"anonymous":false},{"type":"event","name":"ListingCancelled","inputs":[{"name":"tokenId","type":"uint256","indexed":true,"internalType":"uint256"}],"anonymous":false},{"type":"event","name":"Paused","inputs":[{"name":"account","type":"address","indexed":false,"internalType":"address"}],"anonymous":false},{"type":"event","name":"Sale","inputs":[{"name":"tokenId","type":"uint256","indexed":true,"internalType":"uint256"},{"name":"seller","type":"address","indexed":true,"internalType":"address"},{"name":"buyer","type":"address","indexed":true,"internalType":"address"},{"name":"price","type":"uint256","indexed":false,"internalType":"uint256"}],"anonymous":false},{"type":"event","name":"Unpaused","inputs":[{"name":"account","type":"address","indexed":false,"internalType":"address"}],"anonymous":false},{"type":"error","name":"EnforcedPause","inputs":[]},{"type":"error","name":"ExpectedPause","inputs":[]},{"type":"error","name":"ReentrancyGuardReentrantCall","inputs":[]}],"bytecode":{"object":"0x608060405234801561000f575f80fd5b506040516122a93803806122a9833981810160405281019061003191906100f5565b60015f819055505f60015f6101000a81548160ff021916908315150217905550806001806101000a81548173ffffffffffffffffffffffffffffffffffffffff021916908373ffffffffffffffffffffffffffffffffffffffff16021790555050610120565b5f80fd5b5f73ffffffffffffffffffffffffffffffffffffffff82169050919050565b5f6100c48261009b565b9050919050565b6100d4816100ba565b81146100de575f80fd5b50565b5f815190506100ef816100cb565b92915050565b5f6020828403121561010a57610109610097565b5b5f610117848285016100e1565b91505092915050565b61217c8061012d5f395ff3fe6080604052600436106100a6575f3560e01c80639979ef45116100635780639979ef451461017c578063a54447aa14610198578063cda4beef146101b4578063de74e57b146101dc578063e80838631461021f578063ed36c52f14610247576100a6565b806326b387bb146100aa5780633ccfd60b146100e65780633f4ba83a146100fc5780635c975abb146101125780638456cb591461013c57806390673c1214610152575b5f80fd5b3480156100b5575f80fd5b506100d060048036038101906100cb9190611802565b61026f565b6040516100dd9190611845565b60405180910390f35b3480156100f1575f80fd5b506100fa610284565b005b348015610107575f80fd5b50610110610405565b005b34801561011d575f80fd5b5061012661040f565b6040516101339190611878565b60405180910390f35b348015610147575f80fd5b50610150610424565b005b34801561015d575f80fd5b5061016661042e565b60405161017391906118ec565b60405180910390f35b6101966004803603810190610191919061192f565b610452565b005b6101b260048036038101906101ad919061192f565b6106cb565b005b3480156101bf575f80fd5b506101da60048036038101906101d5919061195a565b6109bd565b005b3480156101e7575f80fd5b5061020260048036038101906101fd919061192f565b610dab565b6040516102169897969594939291906119b9565b60405180910390f35b34801561022a575f80fd5b506102456004803603810190610240919061192f565b610e46565b005b348015610252575f80fd5b5061026d60048036038101906102689190611a35565b61126f565b005b6003602052805f5260405f205f915090505481565b61028c61160d565b5f60035f3373ffffffffffffffffffffffffffffffffffffffff1673ffffffffffffffffffffffffffffffffffffffff1681526020019081526020015f205490505f811161030f576040517f08c379a000000000000000000000000000000000000000000000000000000000815260040161030690611acd565b60405180910390fd5b5f60035f3373ffffffffffffffffffffffffffffffffffffffff1673ffffffffffffffffffffffffffffffffffffffff1681526020019081526020015f20819055505f3373ffffffffffffffffffffffffffffffffffffffff168260405161037690611b18565b5f6040518083038185875af1925050503d805f81146103b0576040519150601f19603f3d011682016040523d82523d5f602084013e6103b5565b606091505b50509050806103f9576040517f08c379a00000000000000000000000000000000000000000000000000000000081526004016103f090611b76565b60405180910390fd5b5050610403611651565b565b61040d61165a565b565b5f60015f9054906101000a900460ff16905090565b61042c6116bb565b565b60018054906101000a900473ffffffffffffffffffffffffffffffffffffffff1681565b61045a61160d565b61046261171c565b5f60025f8381526020019081526020015f209050806006015f9054906101000a900460ff1680156104a05750806004015f9054906101000a900460ff165b6104df576040517f08c379a00000000000000000000000000000000000000000000000000000000081526004016104d690611bde565b60405180910390fd5b80600301544210610525576040517f08c379a000000000000000000000000000000000000000000000000000000000815260040161051c90611c46565b60405180910390fd5b8060050154341161056b576040517f08c379a000000000000000000000000000000000000000000000000000000000815260040161056290611cae565b60405180910390fd5b5f8160040160019054906101000a900473ffffffffffffffffffffffffffffffffffffffff1690505f826005015490505f73ffffffffffffffffffffffffffffffffffffffff168273ffffffffffffffffffffffffffffffffffffffff1614610622578060035f8473ffffffffffffffffffffffffffffffffffffffff1673ffffffffffffffffffffffffffffffffffffffff1681526020019081526020015f205f82825461061a9190611cf9565b925050819055505b338360040160016101000a81548173ffffffffffffffffffffffffffffffffffffffff021916908373ffffffffffffffffffffffffffffffffffffffff1602179055503483600501819055503373ffffffffffffffffffffffffffffffffffffffff16847fb8d756f2d1da4663767eb4d559780ace84f2f65a421a60ddcb47e8b2e5d2fd26346040516106b59190611845565b60405180910390a35050506106c8611651565b50565b6106d361160d565b6106db61171c565b5f60025f8381526020019081526020015f209050806006015f9054906101000a900460ff1661073f576040517f08c379a000000000000000000000000000000000000000000000000000000000815260040161073690611d76565b60405180910390fd5b806004015f9054906101000a900460ff1615610790576040517f08c379a000000000000000000000000000000000000000000000000000000000815260040161078790611dde565b60405180910390fd5b806002015434146107d6576040517f08c379a00000000000000000000000000000000000000000000000000000000081526004016107cd90611e46565b60405180910390fd5b5f816006015f6101000a81548160ff0219169083151502179055505f815f015f9054906101000a900473ffffffffffffffffffffffffffffffffffffffff16905060018054906101000a900473ffffffffffffffffffffffffffffffffffffffff1673ffffffffffffffffffffffffffffffffffffffff166323b872dd3033866040518463ffffffff1660e01b815260040161087493929190611e64565b5f604051808303815f87803b15801561088b575f80fd5b505af115801561089d573d5f803e3d5ffd5b505050505f8173ffffffffffffffffffffffffffffffffffffffff16346040516108c690611b18565b5f6040518083038185875af1925050503d805f8114610900576040519150601f19603f3d011682016040523d82523d5f602084013e610905565b606091505b5050905080610949576040517f08c379a000000000000000000000000000000000000000000000000000000000815260040161094090611b76565b60405180910390fd5b3373ffffffffffffffffffffffffffffffffffffffff168273ffffffffffffffffffffffffffffffffffffffff16857f88863d5e20f64464b554931394e2e4b6f09c10015147215bf26b3ba5070acebe346040516109a79190611845565b60405180910390a45050506109ba611651565b50565b6109c561171c565b3373ffffffffffffffffffffffffffffffffffffffff1660018054906101000a900473ffffffffffffffffffffffffffffffffffffffff1673ffffffffffffffffffffffffffffffffffffffff16636352211e856040518263ffffffff1660e01b8152600401610a359190611845565b602060405180830381865afa158015610a50573d5f803e3d5ffd5b505050506040513d601f19601f82011682018060405250810190610a749190611ead565b73ffffffffffffffffffffffffffffffffffffffff1614610aca576040517f08c379a0000000000000000000000000000000000000000000000000000000008152600401610ac190611f22565b60405180910390fd5b5f8211610b0c576040517f08c379a0000000000000000000000000000000000000000000000000000000008152600401610b0390611fb0565b60405180910390fd5b5f8111610b4e576040517f08c379a0000000000000000000000000000000000000000000000000000000008152600401610b4590612018565b60405180910390fd5b6040518061010001604052803373ffffffffffffffffffffffffffffffffffffffff1681526020018481526020018381526020018242610b8e9190611cf9565b81526020016001151581526020015f73ffffffffffffffffffffffffffffffffffffffff1681526020015f81526020016001151581525060025f8581526020019081526020015f205f820151815f015f6101000a81548173ffffffffffffffffffffffffffffffffffffffff021916908373ffffffffffffffffffffffffffffffffffffffff1602179055506020820151816001015560408201518160020155606082015181600301556080820151816004015f6101000a81548160ff02191690831515021790555060a08201518160040160016101000a81548173ffffffffffffffffffffffffffffffffffffffff021916908373ffffffffffffffffffffffffffffffffffffffff16021790555060c0820151816005015560e0820151816006015f6101000a81548160ff02191690831515021790555090505060018054906101000a900473ffffffffffffffffffffffffffffffffffffffff1673ffffffffffffffffffffffffffffffffffffffff166323b872dd3330866040518463ffffffff1660e01b8152600401610d2793929190611e64565b5f604051808303815f87803b158015610d3e575f80fd5b505af1158015610d50573d5f803e3d5ffd5b505050503373ffffffffffffffffffffffffffffffffffffffff16837fbe0a9b75dabef263d81ce79adc2f54ba8f50619e8b09ecc7a11b04f1bf364d89846001604051610d9e929190612036565b60405180910390a3505050565b6002602052805f5260405f205f91509050805f015f9054906101000a900473ffffffffffffffffffffffffffffffffffffffff1690806001015490806002015490806003015490806004015f9054906101000a900460ff16908060040160019054906101000a900473ffffffffffffffffffffffffffffffffffffffff1690806005015490806006015f9054906101000a900460ff16905088565b610e4e61160d565b5f60025f8381526020019081526020015f209050806006015f9054906101000a900460ff168015610e8c5750806004015f9054906101000a900460ff165b610ecb576040517f08c379a0000000000000000000000000000000000000000000000000000000008152600401610ec290611bde565b60405180910390fd5b8060030154421015610f12576040517f08c379a0000000000000000000000000000000000000000000000000000000008152600401610f09906120a7565b60405180910390fd5b5f816006015f6101000a81548160ff0219169083151502179055505f73ffffffffffffffffffffffffffffffffffffffff168160040160019054906101000a900473ffffffffffffffffffffffffffffffffffffffff1673ffffffffffffffffffffffffffffffffffffffff16146111b65760018054906101000a900473ffffffffffffffffffffffffffffffffffffffff1673ffffffffffffffffffffffffffffffffffffffff166323b872dd308360040160019054906101000a900473ffffffffffffffffffffffffffffffffffffffff16856040518463ffffffff1660e01b815260040161100593929190611e64565b5f604051808303815f87803b15801561101c575f80fd5b505af115801561102e573d5f803e3d5ffd5b505050505f815f015f9054906101000a900473ffffffffffffffffffffffffffffffffffffffff1673ffffffffffffffffffffffffffffffffffffffff16826005015460405161107d90611b18565b5f6040518083038185875af1925050503d805f81146110b7576040519150601f19603f3d011682016040523d82523d5f602084013e6110bc565b606091505b5050905080611100576040517f08c379a00000000000000000000000000000000000000000000000000000000081526004016110f790611b76565b60405180910390fd5b8160040160019054906101000a900473ffffffffffffffffffffffffffffffffffffffff1673ffffffffffffffffffffffffffffffffffffffff16825f015f9054906101000a900473ffffffffffffffffffffffffffffffffffffffff1673ffffffffffffffffffffffffffffffffffffffff16847f88863d5e20f64464b554931394e2e4b6f09c10015147215bf26b3ba5070acebe85600501546040516111a89190611845565b60405180910390a450611263565b60018054906101000a900473ffffffffffffffffffffffffffffffffffffffff1673ffffffffffffffffffffffffffffffffffffffff166323b872dd30835f015f9054906101000a900473ffffffffffffffffffffffffffffffffffffffff16856040518463ffffffff1660e01b815260040161123593929190611e64565b5f604051808303815f87803b15801561124c575f80fd5b505af115801561125e573d5f803e3d5ffd5b505050505b5061126c611651565b50565b61127761171c565b3373ffffffffffffffffffffffffffffffffffffffff1660018054906101000a900473ffffffffffffffffffffffffffffffffffffffff1673ffffffffffffffffffffffffffffffffffffffff16636352211e846040518263ffffffff1660e01b81526004016112e79190611845565b602060405180830381865afa158015611302573d5f803e3d5ffd5b505050506040513d601f19601f820116820180604052508101906113269190611ead565b73ffffffffffffffffffffffffffffffffffffffff161461137c576040517f08c379a000000000000000000000000000000000000000000000000000000000815260040161137390611f22565b60405180910390fd5b5f81116113be576040517f08c379a00000000000000000000000000000000000000000000000000000000081526004016113b59061210f565b60405180910390fd5b6040518061010001604052803373ffffffffffffffffffffffffffffffffffffffff1681526020018381526020018281526020015f81526020015f151581526020015f73ffffffffffffffffffffffffffffffffffffffff1681526020015f81526020016001151581525060025f8481526020019081526020015f205f820151815f015f6101000a81548173ffffffffffffffffffffffffffffffffffffffff021916908373ffffffffffffffffffffffffffffffffffffffff1602179055506020820151816001015560408201518160020155606082015181600301556080820151816004015f6101000a81548160ff02191690831515021790555060a08201518160040160016101000a81548173ffffffffffffffffffffffffffffffffffffffff021916908373ffffffffffffffffffffffffffffffffffffffff16021790555060c0820151816005015560e0820151816006015f6101000a81548160ff02191690831515021790555090505060018054906101000a900473ffffffffffffffffffffffffffffffffffffffff1673ffffffffffffffffffffffffffffffffffffffff166323b872dd3330856040518463ffffffff1660e01b815260040161158b93929190611e64565b5f604051808303815f87803b1580156115a2575f80fd5b505af11580156115b4573d5f803e3d5ffd5b505050503373ffffffffffffffffffffffffffffffffffffffff16827fbe0a9b75dabef263d81ce79adc2f54ba8f50619e8b09ecc7a11b04f1bf364d89835f604051611601929190612036565b60405180910390a35050565b60025f5403611648576040517f3ee5aeb500000000000000000000000000000000000000000000000000000000815260040160405180910390fd5b60025f81905550565b60015f81905550565b61166261175d565b5f60015f6101000a81548160ff0219169083151502179055507f5db9ee0a495bf2e6ff9c91a7834c1ba4fdd244a5e8aa4e537bd38aeae4b073aa6116a461179d565b6040516116b1919061212d565b60405180910390a1565b6116c361171c565b6001805f6101000a81548160ff0219169083151502179055507f62e78cea01bee320cd4e420270b5ea74000d11b0c9f74754ebdbfc544b05a25861170561179d565b604051611712919061212d565b60405180910390a1565b61172461040f565b1561175b576040517fd93c066500000000000000000000000000000000000000000000000000000000815260040160405180910390fd5b565b61176561040f565b61179b576040517f8dfc202b00000000000000000000000000000000000000000000000000000000815260040160405180910390fd5b565b5f33905090565b5f80fd5b5f73ffffffffffffffffffffffffffffffffffffffff82169050919050565b5f6117d1826117a8565b9050919050565b6117e1816117c7565b81146117eb575f80fd5b50565b5f813590506117fc816117d8565b92915050565b5f60208284031215611817576118166117a4565b5b5f611824848285016117ee565b91505092915050565b5f819050919050565b61183f8161182d565b82525050565b5f6020820190506118585f830184611836565b92915050565b5f8115159050919050565b6118728161185e565b82525050565b5f60208201905061188b5f830184611869565b92915050565b5f819050919050565b5f6118b46118af6118aa846117a8565b611891565b6117a8565b9050919050565b5f6118c58261189a565b9050919050565b5f6118d6826118bb565b9050919050565b6118e6816118cc565b82525050565b5f6020820190506118ff5f8301846118dd565b92915050565b61190e8161182d565b8114611918575f80fd5b50565b5f8135905061192981611905565b92915050565b5f60208284031215611944576119436117a4565b5b5f6119518482850161191b565b91505092915050565b5f805f60608486031215611971576119706117a4565b5b5f61197e8682870161191b565b935050602061198f8682870161191b565b92505060406119a08682870161191b565b9150509250925092565b6119b3816117c7565b82525050565b5f610100820190506119cd5f83018b6119aa565b6119da602083018a611836565b6119e76040830189611836565b6119f46060830188611836565b611a016080830187611869565b611a0e60a08301866119aa565b611a1b60c0830185611836565b611a2860e0830184611869565b9998505050505050505050565b5f8060408385031215611a4b57611a4a6117a4565b5b5f611a588582860161191b565b9250506020611a698582860161191b565b9150509250929050565b5f82825260208201905092915050565b7f4e6f2066756e647320746f2077697468647261770000000000000000000000005f82015250565b5f611ab7601483611a73565b9150611ac282611a83565b602082019050919050565b5f6020820190508181035f830152611ae481611aab565b9050919050565b5f81905092915050565b50565b5f611b035f83611aeb565b9150611b0e82611af5565b5f82019050919050565b5f611b2282611af8565b9150819050919050565b7f4661696c656420746f2073656e642045746865720000000000000000000000005f82015250565b5f611b60601483611a73565b9150611b6b82611b2c565b602082019050919050565b5f6020820190508181035f830152611b8d81611b54565b9050919050565b7f4e6f7420616e206163746976652061756374696f6e00000000000000000000005f82015250565b5f611bc8601583611a73565b9150611bd382611b94565b602082019050919050565b5f6020820190508181035f830152611bf581611bbc565b9050919050565b7f41756374696f6e20656e646564000000000000000000000000000000000000005f82015250565b5f611c30600d83611a73565b9150611c3b82611bfc565b602082019050919050565b5f6020820190508181035f830152611c5d81611c24565b9050919050565b7f42696420746f6f206c6f770000000000000000000000000000000000000000005f82015250565b5f611c98600b83611a73565b9150611ca382611c64565b602082019050919050565b5f6020820190508181035f830152611cc581611c8c565b9050919050565b7f4e487b71000000000000000000000000000000000000000000000000000000005f52601160045260245ffd5b5f611d038261182d565b9150611d0e8361182d565b9250828201905080821115611d2657611d25611ccc565b5b92915050565b7f4c697374696e67206e6f742061637469766500000000000000000000000000005f82015250565b5f611d60601283611a73565b9150611d6b82611d2c565b602082019050919050565b5f6020820190508181035f830152611d8d81611d54565b9050919050565b7f4974656d20697320696e2061756374696f6e00000000000000000000000000005f82015250565b5f611dc8601283611a73565b9150611dd382611d94565b602082019050919050565b5f6020820190508181035f830152611df581611dbc565b9050919050565b7f496e636f7272656374207061796d656e7420616d6f756e7400000000000000005f82015250565b5f611e30601883611a73565b9150611e3b82611dfc565b602082019050919050565b5f6020820190508181035f830152611e5d81611e24565b9050919050565b5f606082019050611e775f8301866119aa565b611e8460208301856119aa565b611e916040830184611836565b949350505050565b5f81519050611ea7816117d8565b92915050565b5f60208284031215611ec257611ec16117a4565b5b5f611ecf84828501611e99565b91505092915050565b7f4e6f74206f776e657200000000000000000000000000000000000000000000005f82015250565b5f611f0c600983611a73565b9150611f1782611ed8565b602082019050919050565b5f6020820190508181035f830152611f3981611f00565b9050919050565b7f5374617274696e67207072696365206d757374206265206772656174657220745f8201527f68616e2030000000000000000000000000000000000000000000000000000000602082015250565b5f611f9a602583611a73565b9150611fa582611f40565b604082019050919050565b5f6020820190508181035f830152611fc781611f8e565b9050919050565b7f4475726174696f6e206d7573742062652067726561746572207468616e2030005f82015250565b5f612002601f83611a73565b915061200d82611fce565b602082019050919050565b5f6020820190508181035f83015261202f81611ff6565b9050919050565b5f6040820190506120495f830185611836565b6120566020830184611869565b9392505050565b7f41756374696f6e206e6f7420656e6465640000000000000000000000000000005f82015250565b5f612091601183611a73565b915061209c8261205d565b602082019050919050565b5f6020820190508181035f8301526120be81612085565b9050919050565b7f5072696365206d7573742062652067726561746572207468616e2030000000005f82015250565b5f6120f9601c83611a73565b9150612104826120c5565b602082019050919050565b5f6020820190508181035f830152612126816120ed565b9050919050565b5f6020820190506121405f8301846119aa565b9291505056fea2646970667358221220ec7dca078f9394b902dc056a8066c5f5da846be9e31d3fa1fb5dd405ab15ea6164736f6c63430008190033","linkReferences":{}},"methodIdentifiers":{"createAuction(uint256,uint256,uint256)":"cda4beef","finalizeAuction(uint256)":"e8083863","listCard(uint256,uint256)":"ed36c52f","listings(uint256)":"de74e57b","pause()":"8456cb59","paused()":"5c975abb","pendingReturns(address)":"26b387bb","placeBid(uint256)":"9979ef45","pokemonCards()":"90673c12","purchaseCard(uint256)":"a54447aa","unpause()":"3f4ba83a","withdraw()":"3ccfd60b"},"id":5}