{"abi":[{"type":"constructor","inputs":[],"stateMutability":"nonpayable"},{"type":"function","name":"MAX_POKEMON_CARDS","inputs":[],"outputs":[{"name":"","type":"uint256","internalType":"uint256"}],"stateMutability":"view"},{"type":"function","name":"MAX_POKEMON_CARDS_PURCHASE","inputs":[],"outputs":[{"name":"","type":"uint256","internalType":"uint256"}],"stateMutability":"view"},{"type":"function","name":"PRICE_ONE_TO_TWO","inputs":[],"outputs":[{"name":"","type":"uint256","internalType":"uint256"}],"stateMutability":"view"},{"type":"function","name":"PRICE_SIX_TO_NINE","inputs":[],"outputs":[{"name":"","type":"uint256","internalType":"uint256"}],"stateMutability":"view"},{"type":"function","name":"PRICE_TEN_TOKENS","inputs":[],"outputs":[{"name":"","type":"uint256","internalType":"uint256"}],"stateMutability":"view"},{"type":"function","name":"PRICE_THREE_TO_FIVE","inputs":[],"outputs":[{"name":"","type":"uint256","internalType":"uint256"}],"stateMutability":"view"},{"type":"function","name":"PokemonCards_PROVENANCE","inputs":[],"outputs":[{"name":"","type":"string","internalType":"string"}],"stateMutability":"view"},{"type":"function","name":"approve","inputs":[{"name":"to","type":"address","internalType":"address"},{"name":"tokenId","type":"uint256","internalType":"uint256"}],"outputs":[],"stateMutability":"nonpayable"},{"type":"function","name":"balanceOf","inputs":[{"name":"owner","type":"address","internalType":"address"}],"outputs":[{"name":"","type":"uint256","internalType":"uint256"}],"stateMutability":"view"},{"type":"function","name":"calculatePrice","inputs":[{"name":"numberOfTokens","type":"uint256","internalType":"uint256"}],"outputs":[{"name":"","type":"uint256","internalType":"uint256"}],"stateMutability":"pure"},{"type":"function","name":"editWhitelistOne","inputs":[{"name":"array","type":"address[]","internalType":"address[]"}],"outputs":[],"stateMutability":"nonpayable"},{"type":"function","name":"editWhitelistTwo","inputs":[{"name":"array","type":"address[]","internalType":"address[]"}],"outputs":[],"stateMutability":"nonpayable"},{"type":"function","name":"flipSaleState","inputs":[],"outputs":[],"stateMutability":"nonpayable"},{"type":"function","name":"getApproved","inputs":[{"name":"tokenId","type":"uint256","internalType":"uint256"}],"outputs":[{"name":"","type":"address","internalType":"address"}],"stateMutability":"view"},{"type":"function","name":"isApprovedForAll","inputs":[{"name":"owner","type":"address","internalType":"address"},{"name":"operator","type":"address","internalType":"address"}],"outputs":[{"name":"","type":"bool","internalType":"bool"}],"stateMutability":"view"},{"type":"function","name":"isContractPaused","inputs":[],"outputs":[{"name":"","type":"bool","internalType":"bool"}],"stateMutability":"view"},{"type":"function","name":"mintPokemonCards","inputs":[{"name":"numberOfTokens","type":"uint256","internalType":"uint256"}],"outputs":[],"stateMutability":"payable"},{"type":"function","name":"name","inputs":[],"outputs":[{"name":"","type":"string","internalType":"string"}],"stateMutability":"view"},{"type":"function","name":"owner","inputs":[],"outputs":[{"name":"","type":"address","internalType":"address"}],"stateMutability":"view"},{"type":"function","name":"ownerOf","inputs":[{"name":"tokenId","type":"uint256","internalType":"uint256"}],"outputs":[{"name":"","type":"address","internalType":"address"}],"stateMutability":"view"},{"type":"function","name":"renounceOwnership","inputs":[],"outputs":[],"stateMutability":"nonpayable"},{"type":"function","name":"reserveMintPokemonCards","inputs":[],"outputs":[],"stateMutability":"nonpayable"},{"type":"function","name":"safeTransferFrom","inputs":[{"name":"from","type":"address","internalType":"address"},{"name":"to","type":"address","internalType":"address"},{"name":"tokenId","type":"uint256","internalType":"uint256"}],"outputs":[],"stateMutability":"nonpayable"},{"type":"function","name":"safeTransferFrom","inputs":[{"name":"from","type":"address","internalType":"address"},{"name":"to","type":"address","internalType":"address"},{"name":"tokenId","type":"uint256","internalType":"uint256"},{"name":"data","type":"bytes","internalType":"bytes"}],"outputs":[],"stateMutability":"nonpayable"},{"type":"function","name":"saleIsActive","inputs":[],"outputs":[{"name":"","type":"bool","internalType":"bool"}],"stateMutability":"view"},{"type":"function","name":"setApprovalForAll","inputs":[{"name":"operator","type":"address","internalType":"address"},{"name":"approved","type":"bool","internalType":"bool"}],"outputs":[],"stateMutability":"nonpayable"},{"type":"function","name":"setBaseURI","inputs":[{"name":"baseURI","type":"string","internalType":"string"}],"outputs":[],"stateMutability":"nonpayable"},{"type":"function","name":"setPaused","inputs":[{"name":"_paused","type":"bool","internalType":"bool"}],"outputs":[],"stateMutability":"nonpayable"},{"type":"function","name":"setProvenanceHash","inputs":[{"name":"provenanceHash","type":"string","internalType":"string"}],"outputs":[],"stateMutability":"nonpayable"},{"type":"function","name":"standardPokemonCardsCount","inputs":[],"outputs":[{"name":"","type":"uint256","internalType":"uint256"}],"stateMutability":"view"},{"type":"function","name":"supportsInterface","inputs":[{"name":"interfaceId","type":"bytes4","internalType":"bytes4"}],"outputs":[{"name":"","type":"bool","internalType":"bool"}],"stateMutability":"view"},{"type":"function","name":"symbol","inputs":[],"outputs":[{"name":"","type":"string","internalType":"string"}],"stateMutability":"view"},{"type":"function","name":"tokenURI","inputs":[{"name":"tokenId","type":"uint256","internalType":"uint256"}],"outputs":[{"name":"","type":"string","internalType":"string"}],"stateMutability":"view"},{"type":"function","name":"totalSupply","inputs":[],"outputs":[{"name":"","type":"uint256","internalType":"uint256"}],"stateMutability":"view"},{"type":"function","name":"transferFrom","inputs":[{"name":"from","type":"address","internalType":"address"},{"name":"to","type":"address","internalType":"address"},{"name":"tokenId","type":"uint256","internalType":"uint256"}],"outputs":[],"stateMutability":"nonpayable"},{"type":"function","name":"transferOwnership","inputs":[{"name":"newOwner","type":"address","internalType":"address"}],"outputs":[],"stateMutability":"nonpayable"},{"type":"function","name":"whitelistOneMint","inputs":[{"name":"","type":"address","internalType":"address"}],"outputs":[{"name":"","type":"bool","internalType":"bool"}],"stateMutability":"view"},{"type":"function","name":"whitelistTwoMint","inputs":[{"name":"","type":"address","internalType":"address"}],"outputs":[{"name":"","type":"bool","internalType":"bool"}],"stateMutability":"view"},{"type":"function","name":"withdraw","inputs":[],"outputs":[],"stateMutability":"nonpayable"},{"type":"event","name":"Approval","inputs":[{"name":"owner","type":"address","indexed":true,"internalType":"address"},{"name":"approved","type":"address","indexed":true,"internalType":"address"},{"name":"tokenId","type":"uint256","indexed":true,"internalType":"uint256"}],"anonymous":false},{"type":"event","name":"ApprovalForAll","inputs":[{"name":"owner","type":"address","indexed":true,"internalType":"address"},{"name":"operator","type":"address","indexed":true,"internalType":"address"},{"name":"approved","type":"bool","indexed":false,"internalType":"bool"}],"anonymous":false},{"type":"event","name":"BaseURIUpdated","inputs":[{"name":"newBaseURI","type":"string","indexed":false,"internalType":"string"}],"anonymous":false},{"type":"event","name":"OwnershipTransferred","inputs":[{"name":"previousOwner","type":"address","indexed":true,"internalType":"address"},{"name":"newOwner","type":"address","indexed":true,"internalType":"address"}],"anonymous":false},{"type":"event","name":"ProvenanceHashUpdated","inputs":[{"name":"newHash","type":"string","indexed":false,"internalType":"string"}],"anonymous":false},{"type":"event","name":"SaleStateUpdated","inputs":[{"name":"isActive","type":"bool","indexed":false,"internalType":"bool"}],"anonymous":false},{"type":"event","name":"TokensMinted","inputs":[{"name":"to","type":"address","indexed":true,"internalType":"address"},{"name":"numberOfTokens","type":"uint256","indexed":false,"internalType":"uint256"},{"name":"price","type":"uint256","indexed":false,"internalType":"uint256"}],"anonymous":false},{"type":"event","name":"Transfer","inputs":[{"name":"from","type":"address","indexed":true,"internalType":"address"},{"name":"to","type":"address","indexed":true,"internalType":"address"},{"name":"tokenId","type":"uint256","indexed":true,"internalType":"uint256"}],"anonymous":false},{"type":"event","name":"WhitelistUpdated","inputs":[{"name":"user","type":"address","indexed":true,"internalType":"address"},{"name":"isTwoTokens","type":"bool","indexed":false,"internalType":"bool"}],"anonymous":false},{"type":"error","name":"ERC721IncorrectOwner","inputs":[{"name":"sender","type":"address","internalType":"address"},{"name":"tokenId","type":"uint256","internalType":"uint256"},{"name":"owner","type":"address","internalType":"address"}]},{"type":"error","name":"ERC721InsufficientApproval","inputs":[{"name":"operator","type":"address","internalType":"address"},{"name":"tokenId","type":"uint256","internalType":"uint256"}]},{"type":"error","name":"ERC721InvalidApprover","inputs":[{"name":"approver","type":"address","internalType":"address"}]},{"type":"error","name":"ERC721InvalidOperator","inputs":[{"name":"operator","type":"address","internalType":"address"}]},{"type":"error","name":"ERC721InvalidOwner","inputs":[{"name":"owner","type":"address","internalType":"address"}]},{"type":"error","name":"ERC721InvalidReceiver","inputs":[{"name":"receiver","type":"address","internalType":"address"}]},{"type":"error","name":"ERC721InvalidSender","inputs":[{"name":"sender","type":"address","internalType":"address"}]},{"type":"error","name":"ERC721NonexistentToken","inputs":[{"name":"tokenId","type":"uint256","internalType":"uint256"}]},{"type":"error","name":"OwnableInvalidOwner","inputs":[{"name":"owner","type":"address","internalType":"address"}]},{"type":"error","name":"OwnableUnauthorizedAccount","inputs":[{"name":"account","type":"address","internalType":"address"}]},{"type":"error","name":"ReentrancyGuardReentrantCall","inputs":[]}],"bytecode":{"object":"0x608060405260405180602001604052805f81525060089081610021919061047d565b505f60095f6101000a81548160ff0219169083151502179055505f600960016101000a81548160ff0219169083151502179055505f600a55348015610064575f80fd5b50336040518060400160405280600c81526020017f506f6b656d6f6e436172647300000000000000000000000000000000000000008152506040518060400160405280600481526020017f504b4d4e00000000000000000000000000000000000000000000000000000000815250815f90816100e0919061047d565b5080600190816100f0919061047d565b5050505f73ffffffffffffffffffffffffffffffffffffffff168173ffffffffffffffffffffffffffffffffffffffff1603610163575f6040517f1e4fbdf700000000000000000000000000000000000000000000000000000000815260040161015a919061058b565b60405180910390fd5b6101728161018060201b60201c565b5060016007819055506105a4565b5f60065f9054906101000a900473ffffffffffffffffffffffffffffffffffffffff1690508160065f6101000a81548173ffffffffffffffffffffffffffffffffffffffff021916908373ffffffffffffffffffffffffffffffffffffffff1602179055508173ffffffffffffffffffffffffffffffffffffffff168173ffffffffffffffffffffffffffffffffffffffff167f8be0079c531659141344cd1fd0a4f28419497f9722a3daafe3b4186f6b6457e060405160405180910390a35050565b5f81519050919050565b7f4e487b71000000000000000000000000000000000000000000000000000000005f52604160045260245ffd5b7f4e487b71000000000000000000000000000000000000000000000000000000005f52602260045260245ffd5b5f60028204905060018216806102be57607f821691505b6020821081036102d1576102d061027a565b5b50919050565b5f819050815f5260205f209050919050565b5f6020601f8301049050919050565b5f82821b905092915050565b5f600883026103337fffffffffffffffffffffffffffffffffffffffffffffffffffffffffffffffff826102f8565b61033d86836102f8565b95508019841693508086168417925050509392505050565b5f819050919050565b5f819050919050565b5f61038161037c61037784610355565b61035e565b610355565b9050919050565b5f819050919050565b61039a83610367565b6103ae6103a682610388565b848454610304565b825550505050565b5f90565b6103c26103b6565b6103cd818484610391565b505050565b5b818110156103f0576103e55f826103ba565b6001810190506103d3565b5050565b601f82111561043557610406816102d7565b61040f846102e9565b8101602085101561041e578190505b61043261042a856102e9565b8301826103d2565b50505b505050565b5f82821c905092915050565b5f6104555f198460080261043a565b1980831691505092915050565b5f61046d8383610446565b9150826002028217905092915050565b61048682610243565b67ffffffffffffffff81111561049f5761049e61024d565b5b6104a982546102a7565b6104b48282856103f4565b5f60209050601f8311600181146104e5575f84156104d3578287015190505b6104dd8582610462565b865550610544565b601f1984166104f3866102d7565b5f5b8281101561051a578489015182556001820191506020850194506020810190506104f5565b868310156105375784890151610533601f891682610446565b8355505b6001600288020188555050505b505050505050565b5f73ffffffffffffffffffffffffffffffffffffffff82169050919050565b5f6105758261054c565b9050919050565b6105858161056b565b82525050565b5f60208201905061059e5f83018461057c565b92915050565b61408a806105b15f395ff3fe60806040526004361061022f575f3560e01c8063715018a61161012d578063b6d8e86f116100aa578063dd32f0eb1161006e578063dd32f0eb146107f3578063e985e9c51461080f578063eb8d24441461084b578063f2fde38b14610875578063f4ab29281461089d5761022f565b8063b6d8e86f14610715578063b88d4fde1461073d578063c87b56dd14610765578063cf52e981146107a1578063d25e0ffa146107cb5761022f565b806395d89b41116100f157806395d89b41146106335780639cf01c491461065d578063a22cb46514610687578063ae104265146106af578063b6b55416146106eb5761022f565b8063715018a614610565578063783efe241461057b5780637d5fcf9c146105b7578063833dbbf5146105f35780638da5cb5b146106095761022f565b806323b872dd116101bb57806342842e0e1161017f57806342842e0e1461047357806355f804b31461049b57806362184825146104c35780636352211e146104ed57806370a08231146105295761022f565b806323b872dd146103cb57806334918dfd146103f357806335d9c408146104095780633ccfd60b146104335780633fd13085146104495761022f565b8063095ea7b311610202578063095ea7b3146102ff57806310969523146103275780631235e4c01461034f57806316c38b3c1461037957806318160ddd146103a15761022f565b806301ffc9a7146102335780630641eb1c1461026f57806306fdde0314610299578063081812fc146102c3575b5f80fd5b34801561023e575f80fd5b5061025960048036038101906102549190612caa565b6108c7565b6040516102669190612cef565b60405180910390f35b34801561027a575f80fd5b506102836109a8565b6040516102909190612d78565b60405180910390f35b3480156102a4575f80fd5b506102ad610a34565b6040516102ba9190612d78565b60405180910390f35b3480156102ce575f80fd5b506102e960048036038101906102e49190612dcb565b610ac3565b6040516102f69190612e35565b60405180910390f35b34801561030a575f80fd5b5061032560048036038101906103209190612e78565b610ade565b005b348015610332575f80fd5b5061034d60048036038101906103489190612f17565b610af4565b005b34801561035a575f80fd5b50610363610b90565b6040516103709190612f71565b60405180910390f35b348015610384575f80fd5b5061039f600480360381019061039a9190612fb4565b610b95565b005b3480156103ac575f80fd5b506103b5610bba565b6040516103c29190612f71565b60405180910390f35b3480156103d6575f80fd5b506103f160048036038101906103ec9190612fdf565b610bc3565b005b3480156103fe575f80fd5b50610407610cc2565b005b348015610414575f80fd5b5061041d610d39565b60405161042a9190612f71565b60405180910390f35b34801561043e575f80fd5b50610447610d44565b005b348015610454575f80fd5b5061045d610e4e565b60405161046a9190612f71565b60405180910390f35b34801561047e575f80fd5b5061049960048036038101906104949190612fdf565b610e5a565b005b3480156104a6575f80fd5b506104c160048036038101906104bc9190612f17565b610e79565b005b3480156104ce575f80fd5b506104d7610f15565b6040516104e49190612f71565b60405180910390f35b3480156104f8575f80fd5b50610513600480360381019061050e9190612dcb565b610f1b565b6040516105209190612e35565b60405180910390f35b348015610534575f80fd5b5061054f600480360381019061054a919061302f565b610f2c565b60405161055c9190612f71565b60405180910390f35b348015610570575f80fd5b50610579610fe2565b005b348015610586575f80fd5b506105a1600480360381019061059c919061302f565b610ff5565b6040516105ae9190612cef565b60405180910390f35b3480156105c2575f80fd5b506105dd60048036038101906105d8919061302f565b611012565b6040516105ea9190612cef565b60405180910390f35b3480156105fe575f80fd5b5061060761102f565b005b348015610614575f80fd5b5061061d611339565b60405161062a9190612e35565b60405180910390f35b34801561063e575f80fd5b50610647611361565b6040516106549190612d78565b60405180910390f35b348015610668575f80fd5b506106716113f1565b60405161067e9190612f71565b60405180910390f35b348015610692575f80fd5b506106ad60048036038101906106a8919061305a565b6113f7565b005b3480156106ba575f80fd5b506106d560048036038101906106d09190612dcb565b61140d565b6040516106e29190612f71565b60405180910390f35b3480156106f6575f80fd5b506106ff6114b4565b60405161070c9190612f71565b60405180910390f35b348015610720575f80fd5b5061073b600480360381019061073691906130ed565b6114c0565b005b348015610748575f80fd5b50610763600480360381019061075e9190613260565b6116b1565b005b348015610770575f80fd5b5061078b60048036038101906107869190612dcb565b6116ce565b6040516107989190612d78565b60405180910390f35b3480156107ac575f80fd5b506107b5611734565b6040516107c29190612f71565b60405180910390f35b3480156107d6575f80fd5b506107f160048036038101906107ec91906130ed565b61173f565b005b61080d60048036038101906108089190612dcb565b611931565b005b34801561081a575f80fd5b50610835600480360381019061083091906132e0565b611bbb565b6040516108429190612cef565b60405180910390f35b348015610856575f80fd5b5061085f611c49565b60405161086c9190612cef565b60405180910390f35b348015610880575f80fd5b5061089b6004803603810190610896919061302f565b611c5b565b005b3480156108a8575f80fd5b506108b1611cdf565b6040516108be9190612cef565b60405180910390f35b5f7f80ac58cd000000000000000000000000000000000000000000000000000000007bffffffffffffffffffffffffffffffffffffffffffffffffffffffff1916827bffffffffffffffffffffffffffffffffffffffffffffffffffffffff1916148061099157507f5b5e139f000000000000000000000000000000000000000000000000000000007bffffffffffffffffffffffffffffffffffffffffffffffffffffffff1916827bffffffffffffffffffffffffffffffffffffffffffffffffffffffff1916145b806109a157506109a082611cf2565b5b9050919050565b600880546109b59061334b565b80601f01602080910402602001604051908101604052809291908181526020018280546109e19061334b565b8015610a2c5780601f10610a0357610100808354040283529160200191610a2c565b820191905f5260205f20905b815481529060010190602001808311610a0f57829003601f168201915b505050505081565b60605f8054610a429061334b565b80601f0160208091040260200160405190810160405280929190818152602001828054610a6e9061334b565b8015610ab95780601f10610a9057610100808354040283529160200191610ab9565b820191905f5260205f20905b815481529060010190602001808311610a9c57829003601f168201915b5050505050905090565b5f610acd82611d5b565b50610ad782611de1565b9050919050565b610af08282610aeb611e1a565b611e21565b5050565b610afc611e33565b5f8282905011610b41576040517f08c379a0000000000000000000000000000000000000000000000000000000008152600401610b38906133c5565b60405180910390fd5b818160089182610b5292919061358a565b507f3c7e4a9f684f5dd596b6acd3719251221230346827c2f351e8da410d4b4d674b8282604051610b84929190613683565b60405180910390a15050565b600a81565b610b9d611e33565b80600960016101000a81548160ff02191690831515021790555050565b5f600b54905090565b5f73ffffffffffffffffffffffffffffffffffffffff168273ffffffffffffffffffffffffffffffffffffffff1603610c33575f6040517f64a0ae92000000000000000000000000000000000000000000000000000000008152600401610c2a9190612e35565b60405180910390fd5b5f610c468383610c41611e1a565b611eba565b90508373ffffffffffffffffffffffffffffffffffffffff168173ffffffffffffffffffffffffffffffffffffffff1614610cbc578382826040517f64283d7b000000000000000000000000000000000000000000000000000000008152600401610cb3939291906136a5565b60405180910390fd5b50505050565b610cca611e33565b60095f9054906101000a900460ff161560095f6101000a81548160ff0219169083151502179055507f1fc466dae96e61aa16f284bedd01e08ffd4c11b154893b64fb405c13544eb49f60095f9054906101000a900460ff16604051610d2f9190612cef565b60405180910390a1565b66f8b0a10e47000081565b610d4c611e33565b610d546120c5565b5f4790505f8111610d9a576040517f08c379a0000000000000000000000000000000000000000000000000000000008152600401610d9190613724565b60405180910390fd5b5f3373ffffffffffffffffffffffffffffffffffffffff1682604051610dbf9061376f565b5f6040518083038185875af1925050503d805f8114610df9576040519150601f19603f3d011682016040523d82523d5f602084013e610dfe565b606091505b5050905080610e42576040517f08c379a0000000000000000000000000000000000000000000000000000000008152600401610e39906137cd565b60405180910390fd5b5050610e4c61210b565b565b67011c37937e08000081565b610e7483838360405180602001604052805f8152506116b1565b505050565b610e81611e33565b5f8282905011610ec6576040517f08c379a0000000000000000000000000000000000000000000000000000000008152600401610ebd90613835565b60405180910390fd5b8181600c9182610ed792919061358a565b507f6741b2fc379fad678116fe3d4d4b9a1a184ab53ba36b86ad0fa66340b1ab41ad8282604051610f09929190613683565b60405180910390a15050565b61271081565b5f610f2582611d5b565b9050919050565b5f8073ffffffffffffffffffffffffffffffffffffffff168273ffffffffffffffffffffffffffffffffffffffff1603610f9d575f6040517f89c62b64000000000000000000000000000000000000000000000000000000008152600401610f949190612e35565b60405180910390fd5b60035f8373ffffffffffffffffffffffffffffffffffffffff1673ffffffffffffffffffffffffffffffffffffffff1681526020019081526020015f20549050919050565b610fea611e33565b610ff35f612115565b565b600e602052805f5260405f205f915054906101000a900460ff1681565b600d602052805f5260405f205f915054906101000a900460ff1681565b600960019054906101000a900460ff161561107f576040517f08c379a00000000000000000000000000000000000000000000000000000000081526004016110769061389d565b60405180910390fd5b6110876120c5565b600e5f3373ffffffffffffffffffffffffffffffffffffffff1673ffffffffffffffffffffffffffffffffffffffff1681526020019081526020015f205f9054906101000a900460ff16806111225750600d5f3373ffffffffffffffffffffffffffffffffffffffff1673ffffffffffffffffffffffffffffffffffffffff1681526020019081526020015f205f9054906101000a900460ff165b611161576040517f08c379a000000000000000000000000000000000000000000000000000000000815260040161115890613905565b60405180910390fd5b612710600b54106111a7576040517f08c379a000000000000000000000000000000000000000000000000000000000815260040161119e9061396d565b60405180910390fd5b5f600e5f3373ffffffffffffffffffffffffffffffffffffffff1673ffffffffffffffffffffffffffffffffffffffff1681526020019081526020015f205f9054906101000a900460ff1615611254575f600e5f3373ffffffffffffffffffffffffffffffffffffffff1673ffffffffffffffffffffffffffffffffffffffff1681526020019081526020015f205f6101000a81548160ff021916908315150217905550600290506112ad565b5f600d5f3373ffffffffffffffffffffffffffffffffffffffff1673ffffffffffffffffffffffffffffffffffffffff1681526020019081526020015f205f6101000a81548160ff021916908315150217905550600190505b61271081600b546112be91906139b8565b116112c957806112da565b600b546127106112d991906139eb565b5b90505f5b8181101561132d57600b5f8154809291906112f890613a1e565b919050555061130933600b546121d8565b600a5f81548092919061131b90613a1e565b919050555080806001019150506112de565b505061133761210b565b565b5f60065f9054906101000a900473ffffffffffffffffffffffffffffffffffffffff16905090565b6060600180546113709061334b565b80601f016020809104026020016040519081016040528092919081815260200182805461139c9061334b565b80156113e75780601f106113be576101008083540402835291602001916113e7565b820191905f5260205f20905b8154815290600101906020018083116113ca57829003601f168201915b5050505050905090565b600a5481565b611409611402611e1a565b83836121f5565b5050565b5f808211801561141e5750600a8211155b61145d576040517f08c379a000000000000000000000000000000000000000000000000000000000815260040161145490613aaf565b60405180910390fd5b600a82036114745766d529ae9e86000090506114af565b6006821061148b5766f8b0a10e47000090506114af565b600382106114a35767010a741a4627800090506114af565b67011c37937e08000090505b919050565b67010a741a4627800081565b6114c8611e33565b5f828290501161150d576040517f08c379a000000000000000000000000000000000000000000000000000000000815260040161150490613b17565b60405180910390fd5b6103e8828290501115611555576040517f08c379a000000000000000000000000000000000000000000000000000000000815260040161154c90613b7f565b60405180910390fd5b5f5b828290508110156116ac575f83838381811061157657611575613b9d565b5b905060200201602081019061158b919061302f565b90505f73ffffffffffffffffffffffffffffffffffffffff168173ffffffffffffffffffffffffffffffffffffffff16036115fb576040517f08c379a00000000000000000000000000000000000000000000000000000000081526004016115f290613c14565b60405180910390fd5b6001600d5f8373ffffffffffffffffffffffffffffffffffffffff1673ffffffffffffffffffffffffffffffffffffffff1681526020019081526020015f205f6101000a81548160ff0219169083151502179055508073ffffffffffffffffffffffffffffffffffffffff167ff93f9a76c1bf3444d22400a00cb9fe990e6abe9dbb333fda48859cfee864543d5f6040516116969190612cef565b60405180910390a2508080600101915050611557565b505050565b6116bc848484610bc3565b6116c88484848461235e565b50505050565b60606116d982611d5b565b505f6116e3612510565b90505f8151116117015760405180602001604052805f81525061172c565b8061170b846125a0565b60405160200161171c929190613c6c565b6040516020818303038152906040525b915050919050565b66d529ae9e86000081565b611747611e33565b5f828290501161178c576040517f08c379a000000000000000000000000000000000000000000000000000000000815260040161178390613b17565b60405180910390fd5b6103e88282905011156117d4576040517f08c379a00000000000000000000000000000000000000000000000000000000081526004016117cb90613b7f565b60405180910390fd5b5f5b8282905081101561192c575f8383838181106117f5576117f4613b9d565b5b905060200201602081019061180a919061302f565b90505f73ffffffffffffffffffffffffffffffffffffffff168173ffffffffffffffffffffffffffffffffffffffff160361187a576040517f08c379a000000000000000000000000000000000000000000000000000000000815260040161187190613c14565b60405180910390fd5b6001600e5f8373ffffffffffffffffffffffffffffffffffffffff1673ffffffffffffffffffffffffffffffffffffffff1681526020019081526020015f205f6101000a81548160ff0219169083151502179055508073ffffffffffffffffffffffffffffffffffffffff167ff93f9a76c1bf3444d22400a00cb9fe990e6abe9dbb333fda48859cfee864543d60016040516119169190612cef565b60405180910390a25080806001019150506117d6565b505050565b600960019054906101000a900460ff1615611981576040517f08c379a00000000000000000000000000000000000000000000000000000000081526004016119789061389d565b60405180910390fd5b6119896120c5565b60095f9054906101000a900460ff166119d7576040517f08c379a00000000000000000000000000000000000000000000000000000000081526004016119ce90613cd9565b60405180910390fd5b5f8111611a19576040517f08c379a0000000000000000000000000000000000000000000000000000000008152600401611a1090613d41565b60405180910390fd5b600a811115611a5d576040517f08c379a0000000000000000000000000000000000000000000000000000000008152600401611a5490613dcf565b60405180910390fd5b61271081600a54611a6e91906139b8565b1115611aaf576040517f08c379a0000000000000000000000000000000000000000000000000000000008152600401611aa690613e37565b60405180910390fd5b5f611ab98261140d565b90505f8282611ac89190613e55565b9050803414611b0c576040517f08c379a0000000000000000000000000000000000000000000000000000000008152600401611b0390613ee0565b60405180910390fd5b5f5b83811015611b5d57600b5f815480929190611b2890613a1e565b9190505550611b3933600b546121d8565b600a5f815480929190611b4b90613a1e565b91905055508080600101915050611b0e565b503373ffffffffffffffffffffffffffffffffffffffff167f2e8ac5177a616f2aec08c3048f5021e4e9743ece034e8d83ba5caf76688bb4758483604051611ba6929190613efe565b60405180910390a25050611bb861210b565b50565b5f60055f8473ffffffffffffffffffffffffffffffffffffffff1673ffffffffffffffffffffffffffffffffffffffff1681526020019081526020015f205f8373ffffffffffffffffffffffffffffffffffffffff1673ffffffffffffffffffffffffffffffffffffffff1681526020019081526020015f205f9054906101000a900460ff16905092915050565b60095f9054906101000a900460ff1681565b611c63611e33565b5f73ffffffffffffffffffffffffffffffffffffffff168173ffffffffffffffffffffffffffffffffffffffff1603611cd3575f6040517f1e4fbdf7000000000000000000000000000000000000000000000000000000008152600401611cca9190612e35565b60405180910390fd5b611cdc81612115565b50565b600960019054906101000a900460ff1681565b5f7f01ffc9a7000000000000000000000000000000000000000000000000000000007bffffffffffffffffffffffffffffffffffffffffffffffffffffffff1916827bffffffffffffffffffffffffffffffffffffffffffffffffffffffff1916149050919050565b5f80611d668361266a565b90505f73ffffffffffffffffffffffffffffffffffffffff168173ffffffffffffffffffffffffffffffffffffffff1603611dd857826040517f7e273289000000000000000000000000000000000000000000000000000000008152600401611dcf9190612f71565b60405180910390fd5b80915050919050565b5f60045f8381526020019081526020015f205f9054906101000a900473ffffffffffffffffffffffffffffffffffffffff169050919050565b5f33905090565b611e2e83838360016126a3565b505050565b611e3b611e1a565b73ffffffffffffffffffffffffffffffffffffffff16611e59611339565b73ffffffffffffffffffffffffffffffffffffffff1614611eb857611e7c611e1a565b6040517f118cdaa7000000000000000000000000000000000000000000000000000000008152600401611eaf9190612e35565b60405180910390fd5b565b5f80611ec58461266a565b90505f73ffffffffffffffffffffffffffffffffffffffff168373ffffffffffffffffffffffffffffffffffffffff1614611f0657611f05818486612862565b5b5f73ffffffffffffffffffffffffffffffffffffffff168173ffffffffffffffffffffffffffffffffffffffff1614611f9157611f455f855f806126a3565b600160035f8373ffffffffffffffffffffffffffffffffffffffff1673ffffffffffffffffffffffffffffffffffffffff1681526020019081526020015f205f82825403925050819055505b5f73ffffffffffffffffffffffffffffffffffffffff168573ffffffffffffffffffffffffffffffffffffffff161461201057600160035f8773ffffffffffffffffffffffffffffffffffffffff1673ffffffffffffffffffffffffffffffffffffffff1681526020019081526020015f205f82825401925050819055505b8460025f8681526020019081526020015f205f6101000a81548173ffffffffffffffffffffffffffffffffffffffff021916908373ffffffffffffffffffffffffffffffffffffffff160217905550838573ffffffffffffffffffffffffffffffffffffffff168273ffffffffffffffffffffffffffffffffffffffff167fddf252ad1be2c89b69c2b068fc378daa952ba7f163c4a11628f55a4df523b3ef60405160405180910390a4809150509392505050565b600260075403612101576040517f3ee5aeb500000000000000000000000000000000000000000000000000000000815260040160405180910390fd5b6002600781905550565b6001600781905550565b5f60065f9054906101000a900473ffffffffffffffffffffffffffffffffffffffff1690508160065f6101000a81548173ffffffffffffffffffffffffffffffffffffffff021916908373ffffffffffffffffffffffffffffffffffffffff1602179055508173ffffffffffffffffffffffffffffffffffffffff168173ffffffffffffffffffffffffffffffffffffffff167f8be0079c531659141344cd1fd0a4f28419497f9722a3daafe3b4186f6b6457e060405160405180910390a35050565b6121f1828260405180602001604052805f815250612925565b5050565b5f73ffffffffffffffffffffffffffffffffffffffff168273ffffffffffffffffffffffffffffffffffffffff160361226557816040517f5b08ba1800000000000000000000000000000000000000000000000000000000815260040161225c9190612e35565b60405180910390fd5b8060055f8573ffffffffffffffffffffffffffffffffffffffff1673ffffffffffffffffffffffffffffffffffffffff1681526020019081526020015f205f8473ffffffffffffffffffffffffffffffffffffffff1673ffffffffffffffffffffffffffffffffffffffff1681526020019081526020015f205f6101000a81548160ff0219169083151502179055508173ffffffffffffffffffffffffffffffffffffffff168373ffffffffffffffffffffffffffffffffffffffff167f17307eab39ab6107e8899845ad3d59bd9653f200f220920489ca2b5937696c31836040516123519190612cef565b60405180910390a3505050565b5f8373ffffffffffffffffffffffffffffffffffffffff163b111561250a578273ffffffffffffffffffffffffffffffffffffffff1663150b7a026123a1611e1a565b8685856040518563ffffffff1660e01b81526004016123c39493929190613f77565b6020604051808303815f875af19250505080156123fe57506040513d601f19601f820116820180604052508101906123fb9190613fd5565b60015b61247f573d805f811461242c576040519150601f19603f3d011682016040523d82523d5f602084013e612431565b606091505b505f81510361247757836040517f64a0ae9200000000000000000000000000000000000000000000000000000000815260040161246e9190612e35565b60405180910390fd5b805181602001fd5b63150b7a0260e01b7bffffffffffffffffffffffffffffffffffffffffffffffffffffffff1916817bffffffffffffffffffffffffffffffffffffffffffffffffffffffff19161461250857836040517f64a0ae920000000000000000000000000000000000000000000000000000000081526004016124ff9190612e35565b60405180910390fd5b505b50505050565b6060600c805461251f9061334b565b80601f016020809104026020016040519081016040528092919081815260200182805461254b9061334b565b80156125965780601f1061256d57610100808354040283529160200191612596565b820191905f5260205f20905b81548152906001019060200180831161257957829003601f168201915b5050505050905090565b60605f60016125ae84612940565b0190505f8167ffffffffffffffff8111156125cc576125cb61313c565b5b6040519080825280601f01601f1916602001820160405280156125fe5781602001600182028036833780820191505090505b5090505f82602001820190505b60011561265f578080600190039150507f3031323334353637383961626364656600000000000000000000000000000000600a86061a8153600a858161265457612653614000565b5b0494505f850361260b575b819350505050919050565b5f60025f8381526020019081526020015f205f9054906101000a900473ffffffffffffffffffffffffffffffffffffffff169050919050565b80806126db57505f73ffffffffffffffffffffffffffffffffffffffff168273ffffffffffffffffffffffffffffffffffffffff1614155b1561280d575f6126ea84611d5b565b90505f73ffffffffffffffffffffffffffffffffffffffff168373ffffffffffffffffffffffffffffffffffffffff161415801561275457508273ffffffffffffffffffffffffffffffffffffffff168173ffffffffffffffffffffffffffffffffffffffff1614155b801561276757506127658184611bbb565b155b156127a957826040517fa9fbf51f0000000000000000000000000000000000000000000000000000000081526004016127a09190612e35565b60405180910390fd5b811561280b57838573ffffffffffffffffffffffffffffffffffffffff168273ffffffffffffffffffffffffffffffffffffffff167f8c5be1e5ebec7d5bd14f71427d1e84f3dd0314c0f7b2291e5b200ac8c7c3b92560405160405180910390a45b505b8360045f8581526020019081526020015f205f6101000a81548173ffffffffffffffffffffffffffffffffffffffff021916908373ffffffffffffffffffffffffffffffffffffffff16021790555050505050565b61286d838383612a91565b612920575f73ffffffffffffffffffffffffffffffffffffffff168373ffffffffffffffffffffffffffffffffffffffff16036128e157806040517f7e2732890000000000000000000000000000000000000000000000000000000081526004016128d89190612f71565b60405180910390fd5b81816040517f177e802f00000000000000000000000000000000000000000000000000000000815260040161291792919061402d565b60405180910390fd5b505050565b61292f8383612b51565b61293b5f84848461235e565b505050565b5f805f90507a184f03e93ff9f4daa797ed6e38ed64bf6a1f010000000000000000831061299c577a184f03e93ff9f4daa797ed6e38ed64bf6a1f010000000000000000838161299257612991614000565b5b0492506040810190505b6d04ee2d6d415b85acef810000000083106129d9576d04ee2d6d415b85acef810000000083816129cf576129ce614000565b5b0492506020810190505b662386f26fc100008310612a0857662386f26fc1000083816129fe576129fd614000565b5b0492506010810190505b6305f5e1008310612a31576305f5e1008381612a2757612a26614000565b5b0492506008810190505b6127108310612a56576127108381612a4c57612a4b614000565b5b0492506004810190505b60648310612a795760648381612a6f57612a6e614000565b5b0492506002810190505b600a8310612a88576001810190505b80915050919050565b5f8073ffffffffffffffffffffffffffffffffffffffff168373ffffffffffffffffffffffffffffffffffffffff1614158015612b4857508273ffffffffffffffffffffffffffffffffffffffff168473ffffffffffffffffffffffffffffffffffffffff161480612b095750612b088484611bbb565b5b80612b4757508273ffffffffffffffffffffffffffffffffffffffff16612b2f83611de1565b73ffffffffffffffffffffffffffffffffffffffff16145b5b90509392505050565b5f73ffffffffffffffffffffffffffffffffffffffff168273ffffffffffffffffffffffffffffffffffffffff1603612bc1575f6040517f64a0ae92000000000000000000000000000000000000000000000000000000008152600401612bb89190612e35565b60405180910390fd5b5f612bcd83835f611eba565b90505f73ffffffffffffffffffffffffffffffffffffffff168173ffffffffffffffffffffffffffffffffffffffff1614612c3f575f6040517f73c6ac6e000000000000000000000000000000000000000000000000000000008152600401612c369190612e35565b60405180910390fd5b505050565b5f604051905090565b5f80fd5b5f80fd5b5f7fffffffff0000000000000000000000000000000000000000000000000000000082169050919050565b612c8981612c55565b8114612c93575f80fd5b50565b5f81359050612ca481612c80565b92915050565b5f60208284031215612cbf57612cbe612c4d565b5b5f612ccc84828501612c96565b91505092915050565b5f8115159050919050565b612ce981612cd5565b82525050565b5f602082019050612d025f830184612ce0565b92915050565b5f81519050919050565b5f82825260208201905092915050565b8281835e5f83830152505050565b5f601f19601f8301169050919050565b5f612d4a82612d08565b612d548185612d12565b9350612d64818560208601612d22565b612d6d81612d30565b840191505092915050565b5f6020820190508181035f830152612d908184612d40565b905092915050565b5f819050919050565b612daa81612d98565b8114612db4575f80fd5b50565b5f81359050612dc581612da1565b92915050565b5f60208284031215612de057612ddf612c4d565b5b5f612ded84828501612db7565b91505092915050565b5f73ffffffffffffffffffffffffffffffffffffffff82169050919050565b5f612e1f82612df6565b9050919050565b612e2f81612e15565b82525050565b5f602082019050612e485f830184612e26565b92915050565b612e5781612e15565b8114612e61575f80fd5b50565b5f81359050612e7281612e4e565b92915050565b5f8060408385031215612e8e57612e8d612c4d565b5b5f612e9b85828601612e64565b9250506020612eac85828601612db7565b9150509250929050565b5f80fd5b5f80fd5b5f80fd5b5f8083601f840112612ed757612ed6612eb6565b5b8235905067ffffffffffffffff811115612ef457612ef3612eba565b5b602083019150836001820283011115612f1057612f0f612ebe565b5b9250929050565b5f8060208385031215612f2d57612f2c612c4d565b5b5f83013567ffffffffffffffff811115612f4a57612f49612c51565b5b612f5685828601612ec2565b92509250509250929050565b612f6b81612d98565b82525050565b5f602082019050612f845f830184612f62565b92915050565b612f9381612cd5565b8114612f9d575f80fd5b50565b5f81359050612fae81612f8a565b92915050565b5f60208284031215612fc957612fc8612c4d565b5b5f612fd684828501612fa0565b91505092915050565b5f805f60608486031215612ff657612ff5612c4d565b5b5f61300386828701612e64565b935050602061301486828701612e64565b925050604061302586828701612db7565b9150509250925092565b5f6020828403121561304457613043612c4d565b5b5f61305184828501612e64565b91505092915050565b5f80604083850312156130705761306f612c4d565b5b5f61307d85828601612e64565b925050602061308e85828601612fa0565b9150509250929050565b5f8083601f8401126130ad576130ac612eb6565b5b8235905067ffffffffffffffff8111156130ca576130c9612eba565b5b6020830191508360208202830111156130e6576130e5612ebe565b5b9250929050565b5f806020838503121561310357613102612c4d565b5b5f83013567ffffffffffffffff8111156131205761311f612c51565b5b61312c85828601613098565b92509250509250929050565b5f80fd5b7f4e487b71000000000000000000000000000000000000000000000000000000005f52604160045260245ffd5b61317282612d30565b810181811067ffffffffffffffff821117156131915761319061313c565b5b80604052505050565b5f6131a3612c44565b90506131af8282613169565b919050565b5f67ffffffffffffffff8211156131ce576131cd61313c565b5b6131d782612d30565b9050602081019050919050565b828183375f83830152505050565b5f6132046131ff846131b4565b61319a565b9050828152602081018484840111156132205761321f613138565b5b61322b8482856131e4565b509392505050565b5f82601f83011261324757613246612eb6565b5b81356132578482602086016131f2565b91505092915050565b5f805f806080858703121561327857613277612c4d565b5b5f61328587828801612e64565b945050602061329687828801612e64565b93505060406132a787828801612db7565b925050606085013567ffffffffffffffff8111156132c8576132c7612c51565b5b6132d487828801613233565b91505092959194509250565b5f80604083850312156132f6576132f5612c4d565b5b5f61330385828601612e64565b925050602061331485828601612e64565b9150509250929050565b7f4e487b71000000000000000000000000000000000000000000000000000000005f52602260045260245ffd5b5f600282049050600182168061336257607f821691505b6020821081036133755761337461331e565b5b50919050565b7f456d7074792068617368206e6f7420616c6c6f776564000000000000000000005f82015250565b5f6133af601683612d12565b91506133ba8261337b565b602082019050919050565b5f6020820190508181035f8301526133dc816133a3565b9050919050565b5f82905092915050565b5f819050815f5260205f209050919050565b5f6020601f8301049050919050565b5f82821b905092915050565b5f600883026134497fffffffffffffffffffffffffffffffffffffffffffffffffffffffffffffffff8261340e565b613453868361340e565b95508019841693508086168417925050509392505050565b5f819050919050565b5f61348e61348961348484612d98565b61346b565b612d98565b9050919050565b5f819050919050565b6134a783613474565b6134bb6134b382613495565b84845461341a565b825550505050565b5f90565b6134cf6134c3565b6134da81848461349e565b505050565b5b818110156134fd576134f25f826134c7565b6001810190506134e0565b5050565b601f82111561354257613513816133ed565b61351c846133ff565b8101602085101561352b578190505b61353f613537856133ff565b8301826134df565b50505b505050565b5f82821c905092915050565b5f6135625f1984600802613547565b1980831691505092915050565b5f61357a8383613553565b9150826002028217905092915050565b61359483836133e3565b67ffffffffffffffff8111156135ad576135ac61313c565b5b6135b7825461334b565b6135c2828285613501565b5f601f8311600181146135ef575f84156135dd578287013590505b6135e7858261356f565b86555061364e565b601f1984166135fd866133ed565b5f5b82811015613624578489013582556001820191506020850194506020810190506135ff565b86831015613641578489013561363d601f891682613553565b8355505b6001600288020188555050505b50505050505050565b5f6136628385612d12565b935061366f8385846131e4565b61367883612d30565b840190509392505050565b5f6020820190508181035f83015261369c818486613657565b90509392505050565b5f6060820190506136b85f830186612e26565b6136c56020830185612f62565b6136d26040830184612e26565b949350505050565b7f4e6f2062616c616e636520746f207769746864726177000000000000000000005f82015250565b5f61370e601683612d12565b9150613719826136da565b602082019050919050565b5f6020820190508181035f83015261373b81613702565b9050919050565b5f81905092915050565b50565b5f61375a5f83613742565b91506137658261374c565b5f82019050919050565b5f6137798261374f565b9150819050919050565b7f5472616e73666572206661696c656400000000000000000000000000000000005f82015250565b5f6137b7600f83612d12565b91506137c282613783565b602082019050919050565b5f6020820190508181035f8301526137e4816137ab565b9050919050565b7f456d70747920555249206e6f7420616c6c6f77656400000000000000000000005f82015250565b5f61381f601583612d12565b915061382a826137eb565b602082019050919050565b5f6020820190508181035f83015261384c81613813565b9050919050565b7f436f6e74726163742069732070617573656400000000000000000000000000005f82015250565b5f613887601283612d12565b915061389282613853565b602082019050919050565b5f6020820190508181035f8301526138b48161387b565b9050919050565b7f4e6f742077686974656c697374656400000000000000000000000000000000005f82015250565b5f6138ef600f83612d12565b91506138fa826138bb565b602082019050919050565b5f6020820190508181035f83015261391c816138e3565b9050919050565b7f4d617820737570706c79207265616368656400000000000000000000000000005f82015250565b5f613957601283612d12565b915061396282613923565b602082019050919050565b5f6020820190508181035f8301526139848161394b565b9050919050565b7f4e487b71000000000000000000000000000000000000000000000000000000005f52601160045260245ffd5b5f6139c282612d98565b91506139cd83612d98565b92508282019050808211156139e5576139e461398b565b5b92915050565b5f6139f582612d98565b9150613a0083612d98565b9250828203905081811115613a1857613a1761398b565b5b92915050565b5f613a2882612d98565b91507fffffffffffffffffffffffffffffffffffffffffffffffffffffffffffffffff8203613a5a57613a5961398b565b5b600182019050919050565b7f496e76616c6964206e756d626572206f6620746f6b656e7300000000000000005f82015250565b5f613a99601883612d12565b9150613aa482613a65565b602082019050919050565b5f6020820190508181035f830152613ac681613a8d565b9050919050565b7f456d707479206172726179206e6f7420616c6c6f7765640000000000000000005f82015250565b5f613b01601783612d12565b9150613b0c82613acd565b602082019050919050565b5f6020820190508181035f830152613b2e81613af5565b9050919050565b7f546f6f206d616e7920616464726573736573206174206f6e63650000000000005f82015250565b5f613b69601a83612d12565b9150613b7482613b35565b602082019050919050565b5f6020820190508181035f830152613b9681613b5d565b9050919050565b7f4e487b71000000000000000000000000000000000000000000000000000000005f52603260045260245ffd5b7f496e76616c6964206164647265737300000000000000000000000000000000005f82015250565b5f613bfe600f83612d12565b9150613c0982613bca565b602082019050919050565b5f6020820190508181035f830152613c2b81613bf2565b9050919050565b5f81905092915050565b5f613c4682612d08565b613c508185613c32565b9350613c60818560208601612d22565b80840191505092915050565b5f613c778285613c3c565b9150613c838284613c3c565b91508190509392505050565b7f53616c65206d7573742062652061637469766520746f206d696e7400000000005f82015250565b5f613cc3601b83612d12565b9150613cce82613c8f565b602082019050919050565b5f6020820190508181035f830152613cf081613cb7565b9050919050565b7f4d757374206d696e74206174206c65617374206f6e6520746f6b656e000000005f82015250565b5f613d2b601c83612d12565b9150613d3682613cf7565b602082019050919050565b5f6020820190508181035f830152613d5881613d1f565b9050919050565b7f45786365656473206d617820746f6b656e7320706572207472616e73616374695f8201527f6f6e000000000000000000000000000000000000000000000000000000000000602082015250565b5f613db9602283612d12565b9150613dc482613d5f565b604082019050919050565b5f6020820190508181035f830152613de681613dad565b9050919050565b7f576f756c6420657863656564206d617820737570706c790000000000000000005f82015250565b5f613e21601783612d12565b9150613e2c82613ded565b602082019050919050565b5f6020820190508181035f830152613e4e81613e15565b9050919050565b5f613e5f82612d98565b9150613e6a83612d98565b9250828202613e7881612d98565b91508282048414831517613e8f57613e8e61398b565b5b5092915050565b7f496e636f7272656374207061796d656e7420616d6f756e7400000000000000005f82015250565b5f613eca601883612d12565b9150613ed582613e96565b602082019050919050565b5f6020820190508181035f830152613ef781613ebe565b9050919050565b5f604082019050613f115f830185612f62565b613f1e6020830184612f62565b9392505050565b5f81519050919050565b5f82825260208201905092915050565b5f613f4982613f25565b613f538185613f2f565b9350613f63818560208601612d22565b613f6c81612d30565b840191505092915050565b5f608082019050613f8a5f830187612e26565b613f976020830186612e26565b613fa46040830185612f62565b8181036060830152613fb68184613f3f565b905095945050505050565b5f81519050613fcf81612c80565b92915050565b5f60208284031215613fea57613fe9612c4d565b5b5f613ff784828501613fc1565b91505092915050565b7f4e487b71000000000000000000000000000000000000000000000000000000005f52601260045260245ffd5b5f6040820190506140405f830185612e26565b61404d6020830184612f62565b939250505056fea264697066735822122028e315da8d2217953225ef85ff8f945971a9630ae56e9db03a922bc92ff7d6c564736f6c63430008190033","linkReferences":{}},"methodIdentifiers":{"MAX_POKEMON_CARDS()":"62184825","MAX_POKEMON_CARDS_PURCHASE()":"1235e4c0","PRICE_ONE_TO_TWO()":"3fd13085","PRICE_SIX_TO_NINE()":"35d9c408","PRICE_TEN_TOKENS()":"cf52e981","PRICE_THREE_TO_FIVE()":"b6b55416","PokemonCards_PROVENANCE()":"0641eb1c","approve(address,uint256)":"095ea7b3","balanceOf(address)":"70a08231","calculatePrice(uint256)":"ae104265","editWhitelistOne(address[])":"b6d8e86f","editWhitelistTwo(address[])":"d25e0ffa","flipSaleState()":"34918dfd","getApproved(uint256)":"081812fc","isApprovedForAll(address,address)":"e985e9c5","isContractPaused()":"f4ab2928","mintPokemonCards(uint256)":"dd32f0eb","name()":"06fdde03","owner()":"8da5cb5b","ownerOf(uint256)":"6352211e","renounceOwnership()":"715018a6","reserveMintPokemonCards()":"833dbbf5","safeTransferFrom(address,address,uint256)":"42842e0e","safeTransferFrom(address,address,uint256,bytes)":"b88d4fde","saleIsActive()":"eb8d2444","setApprovalForAll(address,bool)":"a22cb465","setBaseURI(string)":"55f804b3","setPaused(bool)":"16c38b3c","setProvenanceHash(string)":"10969523","standardPokemonCardsCount()":"9cf01c49","supportsInterface(bytes4)":"01ffc9a7","symbol()":"95d89b41","tokenURI(uint256)":"c87b56dd","totalSupply()":"18160ddd","transferFrom(address,address,uint256)":"23b872dd","transferOwnership(address)":"f2fde38b","whitelistOneMint(address)":"7d5fcf9c","whitelistTwoMint(address)":"783efe24","withdraw()":"3ccfd60b"},"id":38}